:020000040001F9
:10B0000050300020FDEC0100EFEB01009FED01004E
:10B010000000000000000000000000000000000030
:10B02000000000000000000000000000B7ED01007B
:10B030000000000000000000B9ED0100BBED0100C0
:10B04000BDED0100BFED010005EB0100C1ED010008
:10B05000C3ED01000000000035DC0100C5ED01007A
:10B06000C7ED0100C9ED0100CBED0100CDED010000
:10B07000CFED0100D1ED0100D3ED0100D5ED0100D0
:10B08000D7ED0100B7D10100D9ED0100DBED0100E2
:10B0900045D20100DDED0100C3E80100DFED010054
:10B0A000E1ED0100E3ED0100000000000000000000
:10B0B0000000000000000000000000000000000090
:10B0C000A4494A6F012383409A434A67704780B579
:10B0D000A1490C2250430818012181729F49018126
:10B0E000FF21C172072100F045FD01BD38B5040004
:10B0F0009B481C216143451806212800113000F0AF
:10B1000039FD1021280000F035FDFF202874A876B5
:10B11000924828832000FFF7D3FF0020BD49A200FA
:10B120008918886531BD30B5030008208A4CA57A9E
:10B13000294209D08948834202D02089834202D122
:10B140000020106030BD052030BD30B583B0040054
:10B150006A46A1B2B04801F0E3F8050008D17421B5
:10B16000684601F0D1F9050002D12000FFF7BEFFCB
:10B1700028003EBD7FB506000525002478481C2127
:10B1800061434018002E0AD169460989008B81422B
:10B190000CD0641C072CF1D3280004B070BD07222A
:10B1A0003100103001F00AFA0028F2D10198046051
:10B1B0000025F1E780B5974B1B68984701BD00203B
:10B1C0007047F1B582B00D00624E6A46817830005A
:10B1D000783001F0A5F8002842D15F4F02984078FE
:10B1E0000C2148433818807A400601D4022D01D141
:10B1F0008A4C04E0012D01D1894C00E0894C0023E8
:10B200001C2257488446029881781C20414360469E
:10B2100041186846A047002815D1022D20D0029879
:10B2200040780C2148433818817ABF220A40827244
:10B230001C231C22029840781C21484331181831E5
:10B240006846A04701E0022D0AD002996846764A76
:10B250000B780C246343F3189B7A9B00D2589047D9
:10B26000F7BD00207047F1B58AB00D001A2069467D
:10B270000880394F03236A4602A968780C2460438A
:10B2800038180089AADF00283DD168780190314E36
:10B290002421484334186846028802A920003C3023
:10B2A00001F08CF900280CD101980C214843381882
:10B2B000807A800727D424213434200000F05AFCFF
:10B2C00021E0A06B002801D0544F00E0544F032030
:10B2D000606368782421484330186946098881638F
:10B2E0006846028802A968782423584330183C3005
:10B2F00001F078F938232422687824214843311852
:10B3000034310A98B84700200BB0F0BD00207047D8
:10B3100080B5FFF7A8FF02BD0020704770B50D0093
:10B320003C4C3823242201006878242670432018DE
:10B33000343001F09FF800280AD169782422514363
:10B3400061188A6B0023DB439A4201D100228A6391
:10B3500070BD0000FC24002028280020FFFF000012
:10B36000382400200020704780B5FFF7D7FF02BDCA
:10B3700000207047F0B583B004000025009500223E
:10B3800000276078234924234343C918AF4E0C2378
:10B39000584330180190886B00280AD00198807AB1
:10B3A000C0230340802B04D108003C3000908A6BFE
:10B3B0004F6B3B0092B2009901980089A9DF0B28DE
:10B3C0000AD10127012300998C4661780C20414362
:10B3D000701800896146A9DF9D4B002800D0180035
:10B3E000012F16D1B24A0C2160780C24604330182A
:10B3F0000089A7DF00280CD0AE49884208D0082871
:10B4000006D0891C884203D0112801D00020FEBD3F
:10B410001800FEBDFC24002074250020F1C30100AB
:10B4200071C30100BFB10100D4B601000020704714
:10B4300080B5FFF79FFF02BDFFB593B09E4D286812
:10B4400000282AD01C98752800D3A8E003A800F093
:10B450004BF9002801D001F0F3F803AC0027277066
:10B4600069460F70169807901C980690002608AA47
:10B47000B1B22800783000F053FF002808D108222C
:10B4800008A9139801F09AF8002801D1A67002E0EB
:10B49000761C072EEBD3A078FF2800D17FE014A8FC
:10B4A00000780490202603280CD11C98742806D01C
:10B4B00040206946087068460078032165E06846C8
:10B4C0000670F8E716987D49401A1C2101F0E1F852
:10B4D00007280FD205A801901598002804D1686F9D
:10B4E000A178C840C0075AD5A078FFF7E9FD6846A3
:10B4F000067042E0169928001830081A1C2101F045
:10B50000C8F8002808D105A8019069460E70677038
:10B510000AA80790069630E04C4E16992800343061
:10B52000081A242101F0B5F8002811D1302069460D
:10B53000087067700120E070B07A80071DD4242164
:10B540006078242250432818343000F013FB14E0B4
:10B55000402069460870169859498842ABD0A078B7
:10B5600080002818806D1699884218D105A801908E
:10B57000A078F17A884200D1677004980228684662
:10B58000007801D1012100E00221014368460170E9
:10B5900005A80190159A694603A8FFF70BFE17B09E
:10B5A000F0BDF0B585B0070001D146484BE0424DF3
:10B5B00000262E6000206872A872FFF788FD242103
:10B5C0002800343000F0D8FA00242000FFF78EFD68
:10B5D000FF2029190874641C072CF6D36C467420CC
:10B5E000A0800720E0803848009029007831684624
:10B5F00000F03EFE002826D101202873387800286C
:10B6000019D100242D4F02AAA1B22800783000F0F1
:10B6100087FE00280DD100231C2202A91C206043B4
:10B62000381800F027FF002803D1641C072C0AD229
:10B63000E9E72E7307E0A188E088414389B27835B5
:10B64000280000F061FF05B0F0BD000028280020B0
:10B650004180000070B504000D00174E307B0028BB
:10B6600001D11A4870BD002C04D0002D02D02868EA
:10B67000010001D1134870BD3168002916D1306036
:10B68000301D691D052200F0ADFF2879B072307AB7
:10B69000FA210140022008433072F079FB21014079
:10B6A00003200843F0710020207070BD084870BD71
:10B6B000FFFF000002300000FC240020382400209E
:10B6C000E4B601000E80000039B4010008800000DB
:10B6D0000480000063B2010067B201000DB30100F5
:10B6E00011B30100FFFFFFFF002801D1134870478D
:10B6F000FF21017041708170C1700020704700000F
:10B700007CB505000E4C6A46A9782000783000F020
:10B7100007FE002811D11C231C22694668781C26CC
:10B7200070432018183000F0A5FE2900684600BFBD
:10B7300004A2A37A9B00D258904773BD0E800000EC
:10B74000FC24002019B301001DB3010065B3010002
:10B7500069B30100F0B591B00400FF200190002012
:10B760000390B94D287B002847D02868002844D092
:10B7700002A8FFF7B9FF002801D000F061FF002008
:10B780000490201D06902C2005A9088102AEFF2000
:10B79000B070002030700090208810280FD06A46CA
:10B7A0000221A088FFF7BFFC002808D1A748009914
:10B7B0000C2251434018C07AB07000987070A348B2
:10B7C00000990C22514347184020802113222388DE
:10B7D000102B13D0112B51D0132B00D19CE0142B24
:10B7E0006BD0192B00D1EEE01A2B00D13FE11E2BBC
:10B7F00000D16FE1522B00D164E181E1C14F6A4673
:10B8000001213800FFF78FFC0028F6D18F480099FE
:10B810000C22514340180221817211216A46117590
:10B8200000997170A1880181022181722100083183
:10B83000072200F0D7FEE07DC10706D54008281892
:10B84000007CFF2809D0019007E03A0001A90834E4
:10B850002000FFF78FFC00280FD17C4800990C22B4
:10B86000514340180199C172817A08220A438272B9
:10B870000198B07002A8FFF743FF2DE1BA7AFD20CE
:10B880001040B872020706D508420BD0002102A86A
:10B89000FFF797FC06E0B078FF2803D0FFF726FCFF
:10B8A000FF20B07010206949009A0C235A43891870
:10B8B00088721220694608750EE1F87AFF2816D1C1
:10B8C000228A01A90020FFF755FC00280FD15F480C
:10B8D00000990C22514340180199C172817A0822C3
:10B8E0000A4382720198B07002A8FFF709FF00981E
:10B8F0001C2148435549009A0C235A438918C97A98
:10B90000FF2902D029181831039100237E490A1813
:10B910000399A08886DFF3E069460A75B97A0422A4
:10B920000A43BA72F97AFF2940D139000020039006
:10B930001C237548039A5A438018827EFF2A21D01F
:10B940000398401C03900728F3D37048049000200C
:10B950000C906D48F97A1C22514340180D9000203C
:10B960000E900F9000981C2148432818183008901A
:10B97000002009900A900B9008AB2A1D0021A08896
:10B980007FDF1DE00B78022B06D0FD23837610307D
:10B99000072200F027FE01E0FE2181760398694628
:10B9A00008710198B0700198F872D0E71043B8722E
:10B9B000162069460875002300228521A0887FDFB4
:10B9C0000028A8D188E0697AFE220A406A72BA7A11
:10B9D000FB211140B97214226B461A75227A002A93
:10B9E00007D0014278D1F87AFFF7AFFB207A0490B4
:10B9F00072E0607A8008C0076ED5B078FF286BD0FF
:10BA0000B97A08220A43BA72617B4908C90707D587
:10BA10003D491C2242438C18A17EFE220A40A27698
:10BA2000F97AFF2958D038491C2250430C1838782D
:10BA300002280DD0200010303900072200F0D2FD7E
:10BA4000A07EFD210CE000BFFC240020282800205F
:10BA500000981C2148432818408D2083A07EFE2199
:10BA60000140A176012102A8FFF7ABFB34E0BA7ACE
:10BA7000207A11281AD1100718D51A2100982422EB
:10BA8000504328183C3000F075F8162069460875B8
:10BA90001F4800990C2251434018817A60220A43C2
:10BAA0008272687A02210143697215E01143B9720A
:10BAB00015206946087502A816A1AA7A920089582D
:10BAC000884709E002A800BF12A1AA7A920089580B
:10BAD000884715E068460275049A05A902A8FFF791
:10BAE00069FB6846007D12280AD1094800990C229A
:10BAF00051434018807A012802D00098FFF7E7FAF6
:10BB000011B0F0BDFFFF000038240020438000008A
:10BB10002828002071B3010075B301002DB4010085
:10BB200031B40100094205D083070BD00270401CDC
:10BB3000491EF9D1704700001206130A1A43130C6C
:10BB40001A4300BF130030B414001500103902D39B
:10BB500010393CC0FCD2490700D30CC000D504C04A
:10BB6000890002D30280801C002900D5027030BCFD
:10BB7000704700000022D5E70022E3E700B5B9488E
:10BB80000068C1490022D243904204D0096889B2BA
:10BB900000F07FFD00BD486800BD10B5CB4C20789B
:10BBA000142148432118091D002000F049F920788C
:10BBB00000F016F96078401E60702078401CC0B21A
:10BBC0000A2800D100202070002000F04CF810BDA1
:10BBD00080B5BE490A7814235A438918091D00F01C
:10BBE0002FF9042000F03FF801BD010000D170479B
:10BBF00080B5112805D1BB48C16B08220A43C26336
:10BC000001BDFFF7E5FF01BD80B529DFFFF7EDFFBF
:10BC100001BD38B5AD480178142251434418241DA4
:10BC2000994D2A68E068A18840182169638892B21A
:10BC30009A420CD22A6892B29B1A2A681204920C79
:10BC4000C918C018FFF7E0FF286880B203E09A081F
:10BC5000FFF7DAFF6088A349486331BD80B528DF6C
:10BC6000FFF7C3FF01BDF0B583B09E4C207097482D
:10BC7000217800293AD0022906D034D303293CD1B7
:10BC8000E06AFFF7EBFFF7BDE56B01218D43E5634C
:10BC90000178142251434618361DF06801907A4904
:10BCA000096889B200F0F5FCE06202270090019873
:10BCB00071884018401E7449096889B200F0E9FC97
:10BCC0000099814201D13D4300E0BD43E563606AD4
:10BCD000002804D1E06B074001D1022000E00020E1
:10BCE00000F06AF8F7BDFFF794FFF7BD21636163C9
:10BCF0004078002801D000F075FAF7BD80B5FFF755
:10BD00003DFFC2490A680968401E92B2504389B299
:10BD100000F0BFFCFFF7A2FF01BD70B55A4D2E68C1
:10BD20002C68FFF72BFF2B683604B20C6D49C96AEB
:10BD3000A4B26143401E9BB25843FFF765FF70BD3C
:10BD400080B56848C06AFFF789FF01BDF8B55F4854
:10BD50000178142251434418241DE7684A4E316883
:10BD600060883818A288801889B200F092FC0D0013
:10BD7000FFF704FF31685B4A926A401E89B248436C
:10BD8000411960883818A388C018FFF73DFFF1BD3E
:10BD900010B5FFF7F3FE01003B4803680468514803
:10BDA000426A491E9BB25943C06A401EA4B2604316
:10BDB000FFF72AFF10BD000080B54A49487000BF58
:10BDC00002A0497889004058804701BDFDBC0100B0
:10BDD0001BBD010041BD01004DBD010091BD010031
:10BDE0003A4914225043081800210171C1800222EF
:10BDF000C260016141610181704770B5334C657863
:10BE00000A2D1BD0267875190A2D00D30A3D142659
:10BE10007543651928716A6103C92A000C3203C28F
:10BE2000EB80049828816078401C60702D48007871
:10BE3000002801D100F0D6F9002070BD042070BDAB
:10BE400070B582B00C00274DA96B009123690200E8
:10BE5000217820000830A4680C2674432C196468EB
:10BE6000A04773BD1410001080B51F48017814223C
:10BE7000514340180079042802D0FFF78EFE01BD1F
:10BE80000120FFF7F0FE01BD1000001000B50F48C3
:10BE90000178142251434018001D5C490968C268AA
:10BEA0004388D21880881018401E89B200F0F1FB38
:10BEB0007449CA6A824205D306D1886A401E80410D
:10BEC000C00F00BD012000BD002000BD6C2300207C
:10BED00080B5C348C16B08229143C1634078FFF726
:10BEE0006BFF01BD002700206C230020F8B5654CD6
:10BEF000E76B38072DD4BD48017814225143401810
:10BF0000001DC1684288891880880818401E3F4972
:10BF1000096889B200F0BDFBA56A0026002D08D093
:10BF2000E16A814205D1666201203843E063002066
:10BF300009E0FFF7ABFF002802D06662022002E0B2
:10BF4000002D03D00320FFF737FFF1BDFFF78CFF73
:10BF5000F1BDFFF7BDFFF1BD80B5B0480078000727
:10BF600002D4FFF781FF01BDFFF7B2FF01BD38B575
:10BF7000444CE56B28071ED4E06A401CE062606A0E
:10BF8000002801D0042010E0FFF780FF002801D036
:10BF900002200AE0A06A00280AD00120054203D14D
:10BFA0002843E063002000E00320FFF705FF31BDD8
:10BFB000FFF75AFF31BDFFF78BFF31BD80B58848D1
:10BFC000C16B0A0708D48A0702D501220A43C2635B
:10BFD0000220FFF7F1FE01BDFFF77AFF01BD80B53A
:10BFE0008E480078000703D40120FFF7E5FE01BD6D
:10BFF000FFF76EFF01BD80B52248C16B0822914357
:10C00000C1630078FFF72FFE01BD00001000001093
:10C0100080B51C48C16B08220378012B04D030D3B3
:10C02000032B18D027D301BD0A4011D16F490A78DC
:10C0300014235A438918091D4A88406B101A4880F6
:10C04000000402D1FFF7A9FD01BDFFF7E2FD01BD2C
:10C05000FFF7D1FF01BD0A40FAD1C16A491CC16294
:10C06000FFF714FF002802D1FFF7FEFE01BD0320F9
:10C07000FFF7F9FD01BD00BF03A14078800008581B
:10C08000804701BD00270020DFBF0100BDBF0100C8
:10C090006FBF010059BF0100EDBE01000100504A11
:10C0A0001078002800D1704780B504281BD00229E1
:10C0B00017D0032917D13C21515C090711D4116B0A
:10C0C000491C1163032908D0022802D0FFF7CBFDD9
:10C0D00001BD5078FFF770FE01BD0D20FFF778FD20
:10C0E00001BDFFF795FF01BDF0B585B03F48017870
:10C0F000142251434618361DF0680190384CB06840
:10C100000C214843201881896A465180C1891180D9
:10C1100080680390B54D2968019889B200F0B9FA9A
:10C12000481E8041C00F03996A4652886B461B889F
:10C130005A4389180291B2887188019B5B189B1839
:10C1400000930023A362002809D0286880B28142AE
:10C1500008D000980299884201D1002A02D0B06824
:10C16000032807D12968019889B200F092FAE062A9
:10C17000032031E029680198801889B200F089FA1B
:10C18000880860622968009889B200F082FA002964
:10C1900021D00098029988421DD00F46296886B2A6
:10C1A000BFB2380089B200F071FA009030002968FF
:10C1B00089B200F06BFA01000098884201D1B81BE7
:10C1C00007E02F68BFB23000296889B200F05EFA3C
:10C1D000781A8008A0620220FFF745FD05B0F0BD87
:10C1E0000027002080B5014802E000BF6C2300203A
:10C1F0000178142251434018001D41889B4A9163E5
:10C200000078012804D0032805D0042803D001BDFC
:10C21000FFF729FD01BDFFF767FF01BD3C270020A7
:10C2200038B500249248048000252800FFF7D8FD87
:10C230006D1C0A2DF9D38D4DAC83FFF79FFC6B4924
:10C240000968C01E89B248432862EC6200200022BF
:10C250000C21414369184C608A81CA81401C022824
:10C26000F6D32C702C636C630420E863002032BD8D
:10C27000F2B582B005007D4C3C20205C400701D423
:10C280000820FEBD002D04D0002902D02868002817
:10C2900001D10E20FEBD554E3068A98880B288427B
:10C2A00013D3102911DBE88800280ED0FFF766FCB5
:10C2B0003368A988226A401E9BB25843EB884B43DF
:10C2C000D318984201D3880701D00720FEBDA78B61
:10C2D0003800022801D10420FEBD029B1F60029B92
:10C2E0005A600C235843201882602B684360818178
:10C2F000E988C1813068316836680092AB88EA8885
:10C30000534380B21818401E89B200F0BFF9B6B28C
:10C310007043009A101820627F1CA7830020FEBD86
:10C3200030B5784B3C241C5D640701D4082030BD37
:10C33000002801D0002A01D10E2030BD0468022C53
:10C3400010D20C2565435B195D68002D0AD040684A
:10C350009D89694340189968DD899B895D43491926
:10C36000884201D3072030BD14605060002030BDEA
:10C37000F2B582B063493C240C5D640701D4082007
:10C38000FEBD029C002C01D0002801D10E20FEBD74
:10C390000468022C15D20C256C430E197168002913
:10C3A0000FD0B1890C004568B768F6896643BE199D
:10C3B000B54206D2002A04D0914202D3D1188C4251
:10C3C00001DA0720FEBD0321029C0C4203D10B427F
:10C3D00001D10D4201D01020FEBD00931300029A3E
:10C3E00001000120FFF709FDFEBD00001000001054
:10C3F000F2B582B043493C240C5D640701D40820A7
:10C40000FEBD029C002C01D0002801D10E20FEBDF3
:10C410000468022C15D20C256C430E197168002992
:10C420000FD0B1890C004568B768F6896643BE191C
:10C43000B54206D2002A04D0914202D3D1188C42D0
:10C4400001DA0720FEBD0321029C0C4203D10B42FE
:10C4500001D10D4201D01020FEBD00931300029ABD
:10C4600001000420FFF7C9FCFEBD000000270020EA
:10C470006C230020F1B582B00C00224D3C20285CDA
:10C48000400701D40820FEBD002C02D002980028ED
:10C4900001D10E20FEBD2068022814D20C21484391
:10C4A0002E18706800280ED0B0896168B768F689C8
:10C4B0004643BE19B14206D2002A04D0904202D3AC
:10C4C000D718B84201DA0720FEBD0320029F0742B9
:10C4D00003D1034201D1014201D01020FEBD17005B
:10C4E000C918029800F07EF80097029B00220221F2
:10C4F000200024680C2674432C196468A04700208F
:10C50000FEBD000000270020F8B504000D002848FB
:10C510003C21415C490701D40820F2BD002C01D127
:10C520000E20F2BD2168022928D20C225143461860
:10C530007068002822D06768B068F189B2895143D9
:10C54000401887421AD2B80701D01020F2BDB06857
:10C55000381A114600F09DF800290FD12800B18942
:10C5600000F094F8002909D1002D07D0B068B189F6
:10C57000F289514340187919884201D20720F2BD4F
:10C58000002000902B00002221000320FFF735FC43
:10C59000F2BD08490978490701D4082070470028EE
:10C5A00001D10E207047044949780160002070478E
:10C5B000002700203C2700206C23002010B402E05C
:10C5C000401C491C521E002A09D00B7804789C425A
:10C5D000F6D002D20020C04302E0012000E000209B
:10C5E00010BC7047124207D08B0706D00B78491C4D
:10C5F0000370401C521EF7D87047830706D00B7893
:10C60000491C0370401C521EF9D1704770B4103A97
:10C6100003D378C9103A78C0FBD2530701D318C9A5
:10C6200018C001D508C908C0D20704D30B880380FD
:10C63000891C801C002A01D50B78037070BC7047E0
:10C6400010B584B0040068460C21FFF795FA0294F7
:10C650006A460021014800F073F81FBD0140000048
:10C66000F446002804D4494200F013F840426047E1
:10C670004042002905D45FD000F00BF84042494207
:10C680006047494200F005F84942604703460B43C2
:10C69000E6D40022030A8B420BD203098B4219D243
:10C6A00043088B422ED2411A00D201465241104615
:10C6B0007047FF2209023FD012068B4205D31212A7
:10C6C00009028B4201D31212090203098B4219D3CA
:10C6D00000E0090AC3098B4201D3CB01C01A5241C1
:10C6E00083098B4201D38B01C01A524143098B420B
:10C6F00001D34B01C01A524103098B4201D30B01F4
:10C70000C01A5241C3088B4201D3CB00C01A524118
:10C7100083088B4201D38B00C01A524143088B42DD
:10C7200001D34B00C01A5241884200D3401A5241F3
:10C73000CFD201461046704708B5C046C04608BD76
:10C74000BFF34F8F034804490860BFF34F8F00BF0A
:10C75000FDE700BF0400FA050CED00E00870000AD8
:10C760004870022070477CB504000D00288809300D
:10C77000824201D20C2076BD684671DF00281FD1AD
:10C780000820298860542888401C28801B2180B2FA
:10C7900021542888401C28806E460622711C80B2D5
:10C7A0002018FFF71FFF2888801D28803278002A74
:10C7B00000D0012280B222542888401C288000200A
:10C7C00076BD3EB502000C001178012904D15078E5
:10C7D000002801D107203EBD01980588A81C83428E
:10C7E00021D3012904D150782818801C83421AD300
:10C7F000581B831E684603806946019800882018EC
:10C80000801C7DDF002833D11178082002290ED149
:10C81000694609889BB28B4207D269460B806946FC
:10C820000988FF290CD30C203EBD0920F7E7012918
:10C83000F3D151789BB28B42EFDB6A461180EEE771
:10C8400069460988491C019A1288A15401990988EE
:10C85000491C019A118089B2605401980088401CDB
:10C8600001990880694609884018019908800020CC
:10C870003EBDF7B584B000240C9D288802900026A8
:10C8800004E02888097840182880761C04980088DD
:10C89000864234DA01A804994968B20089180A88E6
:10C8A00002804A8842800022694665DF002833D131
:10C8B00068460078097E8842E7D1002C01D000202C
:10C8C00000E0022029886A46928E6F463F78CF1991
:10C8D000381882421CDB002C09D1491C298068468B
:10C8E000007D89B258542888401C2880012428885B
:10C8F0001A18694601A865DF0028C2D00CE0002C98
:10C9000009D028880299401A401E80B2FF2801DD14
:10C910000C2001E05854002007B0F0BDFEB5060021
:10C920001700089D099C019400950222FFF7A1FFC2
:10C93000002807D101940095029B10223900300095
:10C94000FFF797FFFEBD7CB582B005000C00118893
:10C95000881D834201D20C2014E028886A4610808A
:10C9600068460288062A0CDB1D4B1E4EB24201DBD4
:10C970009A4206D16888062803DBB04204DB98425D
:10C9800008D0072004B070BD9A4203D06A461288CE
:10C990009042F6D30520605402980088401C02990A
:10C9A0000880122180B2215402980088401C02990C
:10C9B000088080B221182888FFF7D0FE02990988E4
:10C9C00008180299088080B221186888FFF7C6FE0F
:10C9D000029909880818029908800020D2E700000F
:10C9E000FFFF0000810C000070B504000E00150070
:10C9F000A088801C29880A18921C934201D3FF2822
:10CA000001D30C2070BD401C70542888401C288025
:10CA1000FF2180B231542888401C288080B2311810
:10CA20002088FFF79BFE298808182880A288002A02
:10CA30000CD0A168002901D1072070BD80B2301848
:10CA4000FFF7D0FD2888A18840182880002070BDFD
:10CA5000F2B507001600B86A002838D0002409E0B3
:10CA6000009B80B21818FFF7BDFD3088A9884018D8
:10CA70003080641C380028300079E4B2844228D227
:10CA8000B86A0C2161434518A888801CFF2801D38F
:10CA90000C20F2BD401C0099328888543088401C1C
:10CAA00030801621009A80B211543088401C3080AA
:10CAB000009980B209182888FFF750FE31880818BD
:10CAC0003080AA88002AD4D0A9680029C8D10720BC
:10CAD000F2BD0020F2BDFEB505000E0014000020DE
:10CAE00021886A461181208029002C318968112211
:10CAF000002915D009786B461B89032B01D20C2025
:10CB0000FEBD0223337023885B1C23809BB2F2544A
:10CB100023885B1C23809BB2F1542188491C21800F
:10CB200029002C31496800291DD0009123886946CD
:10CB30000F89190012318F42E1D3F2542188491C28
:10CB40002180102289B272542188491C21800F2132
:10CB5000009A525C2388F254491E2288521C22807B
:10CB600049B20029F4D529002C318978002925D033
:10CB7000228868460389D01C8342C0D30220B05467
:10CB80002088401C20801C2280B232542088401C07
:10CB9000208001290BD02CD3032904D005D30429EC
:10CBA00027D1032104E0022102E0012100E000215D
:10CBB00080B231542088401C2080002029002C3174
:10CBC0004978002907D06846028921003000FFF724
:10CBD000CAFD00280CD1A978002922D06846008916
:10CBE0002188091D88428AD3684679DF002802D04F
:10CBF000FEBD0720FEBD0320218870542088401C04
:10CC00002080192180B231542088401C208080B2BD
:10CC1000311868460088FFF7A1FD21880818208098
:10CC20000020E978002917D049B222886846038994
:10CC3000D01C8342D7D30220B0542088401C2080CF
:10CC4000012280B232542088401C208080B23154AE
:10CC50002088401C208000206968002918D000200E
:10CC60000956228868460389D01C8342BBD3022020
:10CC7000B0542088401C20800A2280B23254208880
:10CC8000401C208080B231542088401C208000202D
:10CC9000298900290CD0684600890190009433004E
:10CCA0000622022128000830FFF738FE00284ED166
:10CCB000298A00290CD0684600890190009433002D
:10CCC0000722032128001030FFF728FE00283ED15C
:10CCD000298B00290CD0684600890190009433000C
:10CCE0001522142128001830FFF718FE00282ED135
:10CCF0002F6A002F08D068460389220031003800CF
:10CD0000FFF721FE002822D16F6A002F08D0684665
:10CD10000389220031003800FFF766FE002816D193
:10CD20002C21695C002908D0684603892200310063
:10CD30002800FFF78DFE002809D12978002906D0A8
:10CD400068460389220031002800FFF73AFDFEBD46
:10CD500070B592B00D001F216A46518011800024E9
:10CD600000280CD0C178490701D4072022E0921C8A
:10CD700009A9FFF7B0FE00281CD109AE02E0002689
:10CD800069464C80002D0BD0E8780028EDD16A462A
:10CD900001A92800FFF79FFE00280BD101AA02E09D
:10CDA00000226846048068460388DBB24188C9B225
:10CDB000300072DF12B070BD10B58207D30EFF24B1
:10CDC0009C40E2438907090E9940030004D5AA4814
:10CDD0001B071B0F083B00E0A8489B089B00C018DE
:10CDE00003681A401143016010BD0000401E00BFDF
:10CDF00000BF00BF00BF00BF00BF00BF00BF00BF3B
:10CE000000BF00BF00BFF1D1704738B5802080025D
:10CE10009B4908609B4880214902016401609A4C4B
:10CE2000012525602F20FFF7E1FF6560974C002565
:10CE300025612F20FFF7DAFFE57031BDFFB5934A7A
:10CE4000D0680390107869460871002069460B7914
:10CE50005C1E0C710121002B43D093686C46247931
:10CE6000E4001B1900931B7817E02C00ED69002DDE
:10CE700013D0BD42F9D1AC4207D1F669D660002E7D
:10CE800003D1AE4E3160106111712E68ED69E5611C
:10CE9000002D02D02C68A4192C60009C6478A34259
:10CEA000D4D0009C646818255D4364195B1C009D08
:10CEB000AD78DBB2AB4200D100232578022D02D041
:10CEC000032D07D0E9E764680294D6683400250092
:10CED000029FCCE7D468002CDFD02074E469D460D2
:10CEE000F8E7D268039B9A4200D0012004B0F0BD5D
:10CEF000FEB5664AD168029111786B46197100211E
:10CF00006B461B795C1E6D462C71002B65D09368B7
:10CF10006C462479E4001B1900E0D46000282DD170
:10CF20001C785D78AC42EBD05D6818266643AD197D
:10CF3000641C9E78E4B2B44200D100241C706C687A
:10CF40002E78012EECD1267C002EE9D1AE686660E9
:10CF5000EE68A6602E69E6606D69A5611579002D01
:10CF600000D06160156966680096761B3602360A45
:10CF7000B34FBE4205D2A56875190AE00400E06906
:10CF8000F0E7009EAD1B2D022D0AA668B54202D225
:10CF9000751B256000E021606160A160012525749A
:10CFA000E161D668002EB8D037682568AF4203D358
:10CFB0007D1B3560E661B0E700963768AF4205D269
:10CFC000ED1B0096F669002E02D0F6E77F1B376056
:10CFD0002560E661009DEC61A0E7D068029A90426E
:10CFE00001D00120FEBD0020FEBDFEB52748C0686F
:10CFF00000283DD000680290B34C20680090234880
:10D0000000690190B14D00980199461A2E40F61C16
:10D010008027BF021D48C078002810D1B748790882
:10D0200001640160B6480760B64807600120B64950
:10D0300008602F20FFF7DAFE01201449C87002981B
:10D04000864200D20600019880192840E0632168DA
:10D05000009A801A2840891A0D40ED1CA84209D276
:10D060002068E0632F20FFF7C1FEBA480760F7BDD4
:10D07000FFF7CBFEF7BD00001CED00E000E400E090
:10D0800080E100E00813014004100140D027002097
:10D09000F0B585B00024C14D28690390E96802917C
:10D0A0006A781100AB789A420FD0491CC9B20229A4
:10D0B00000D100218A00AA1852690192801800024A
:10D0C000000A28610120009001E001940094697039
:10D0D000FFF7B4FE0600E868009900291FD0019907
:10D0E000009413E0C91A009EF31800930023136004
:10D0F0000190D069D368002B08D0039E009FF619D9
:10D100003602360A56609360D461019C002805D02F
:10D11000020013689942E5D2591A11600126E860AD
:10D120002000FFF7E5FE002801D1002E02D0029872
:10D13000FFF75BFF0020287105B0F0BD081001402B
:10D140004278521C8378D2B29A4200D100220378EE
:10D150009A4201D1002070470A7041684078182235
:10D16000504308187047F0B583B00C0017001E003C
:10D17000C00000909F4D01A9A868009A8018FFF791
:10D18000DFFF002801D10420FEBD012101704460B1
:10D190004D4909688160C760066108994161684628
:10D1A0000079A968009A891848708020400369496D
:10D1B00008600020FEBDF8B58F480026066446646E
:10D1C0008664C66406604660744CE568002D36D0FF
:10D1D00000963D4800682169401A07023F0A286806
:10D1E000874219D33F1A0099081800902800ED696A
:10D1F000017C00290ED0067442698169E369180038
:10D2000006D010009847002804D0FFF719FA01E073
:10D2100008009047002DE2D1A0786178814205D1C5
:10D22000401CA070C0B2022800D1A670A078800077
:10D230002018009941618020400346490860F1BDF3
:10D24000FFFF7F0080B5FFF723FF01BDFBB5150091
:10D2500003273D4204D10026504C002D02D1A66088
:10D260000720FEBDFFF7D1FD0298E0612770A560A1
:10D2700018350020A168C20089180E704E706A46E9
:10D2800012798A704D6069460979182251436D18E8
:10D29000401C0328EEDBE6606670A67080256D03F7
:10D2A0001748056003211420FFF786FD1548056027
:10D2B000054D0098686003211120FFF77DFD286867
:10D2C00020610020FEBD000004150140FFFFFF00AB
:10D2D000484B9B68002B09D0130001D0002801D1D6
:10D2E000072070470068037C002B01D0082070479E
:10D2F0000374417442610020704700000413014030
:10D3000080E200E000E100E000100140EFF3058062
:10D31000C205D20D1CD0103A032003211140C900D0
:10D3200053B2002B04D5354A1B071B0F083B00E006
:10D33000334A9B089B00D258CA40910908400128F3
:10D3400002D0032802D003E000207047012070477C
:10D350000220704700E200E0F8B504000D0017005D
:10D3600024488068002808D0002C06D0052D01D262
:10D370000720F2BD6069002801D10820F2BD607C61
:10D38000012801D12E0000E00026FFF7BFFF009723
:10D3900033002A002100FFF7E6FEF2BDD02700206F
:10D3A000F8B50400134DA868002804D0002C02D062
:10D3B0006069002801D10820F2BD00262674FFF71D
:10D3C000A5FFC7006946A868C019FFF7B9FE002885
:10D3D00001D10420F2BD022101704460684600784A
:10D3E000A968C919487080204003064908600020D8
:10D3F000F2BD0000D0270020001101401CED00E02C
:10D4000000E400E000E200E0042809D2AE4A12681D
:10D41000D343BF4A80001058C340D807C00F00E074
:10D420000020087000207047F1B500200025AC4AAC
:10D430008300D3586C462478A34202D0401C0428B1
:10D44000F6D304282FD2B34C42001218A61827187E
:10D45000002917D002291ED01ED2357870780028F6
:10D460000DD022000D3261690A2041432000643052
:10D47000FFF772FF002802D1684600786073B07829
:10D48000387409E020006430FFF78AFFB578387CF3
:10D49000A84208D100E07578002D04D0216A080068
:10D4A00001D028008847F1BD80B502210078FFF740
:10D4B000BBFF01BDF1B584B000250020954EF16998
:10D4C000CA4303921146E02252040A400092716955
:10D4D0008A00511802916946097C0191AF4C802263
:10D4E00092035100019B172B17D802A7FF5C7F0006
:10D4F000BF4400BF0C14142B394C67787F887F8899
:10D50000E19595959595C2C8D0D8E1E10399F022AF
:10D5100052040A406260A5603573D3E000986060F1
:10D52000A5606846007C2168F0235B044B401340F3
:10D5300006D06260A560022820D1E121C90034E054
:10D54000A260656002281ED12EE000986060A56090
:10D550002068F02149044140114023D06260A56059
:10D56000C821890021E000986060A5602068F02152
:10D5700049044140114004D06260A560FA210901CC
:10D5800013E0A2606560C82149000EE00098606069
:10D59000A5602068F02149044140114002D062603A
:10D5A000A56001E0A2606560C8216846007C307318
:10D5B000756908006421FFF76CF8454329000022D3
:10D5C00028E000986060A5602068F021490441408F
:10D5D000114002D06260A56001E0A2606560062093
:10D5E00030730CE000996160A560A260656007215E
:10D5F00067E020680A00824362600140A160002267
:10D60000716907E020680A00824362600140A160FE
:10D610000022029924363000FFF79EFE52E03000CF
:10D620004430FFF7BDFE1121019A891A1CD0002851
:10D630001AD180221204F26102290ED30095776973
:10D64000C820414308006421FFF723F8474339000D
:10D65000002230004430FFF77FFEF169F0225204CF
:10D660000A40A26065602DE0F169F02252040A4090
:10D670006260A560F56125E0F02149046160A56064
:10D6800012211EE0E02149046160A560A26065608E
:10D69000132116E0D02252046260A560A16065608B
:10D6A00014210EE0C02149046160A5608908A160D1
:10D6B0006560152105E0F0214904A16065606946B7
:10D6C000097C317305B0F0BD100500503448017E6F
:10D6D000C90700D4704780B5007BFFF7EBFE01BDA2
:10D6E00040D801002D4801688022120413008B43AA
:10D6F00043600A408260704780B50021284A127E4C
:10D70000D20702D5FFF7D6FE0100080002BD0000D7
:10D7100040D8010094250020F8B505000F00002630
:10D7200000201F494F618D610A62A9071DD50024A1
:10D7300001220121200000F035F8641C042C01D2E4
:10D740000028F5D0002804D17A08042140A000F078
:10D75000E5F8002801D100F015F9002805D12E4A7E
:10D76000002100BF35A0FFF7B3FDE90705D52B4920
:10D77000F02252040A604E600A61002805D1284A4E
:10D78000002100BF2BA0FFF7A3FD002805D1254AEB
:10D79000012100BF28A0FFF79BFDF2BD040500504A
:10D7A0009425002030B503000020042B16D2012A56
:10D7B00005D1012902D11A000D3200E000221A4CD5
:10D7C0005D00EB18E318002906D0022902D005D22B
:10D7D0001A7030BD5A7030BD9A7030BD072030BD10
:10D7E00070B50022114B00BF15A495006459A40028
:10D7F0001B191C680500D540ED0701D5032500E085
:10D8000000250B4E26402C0434431C60521C042A75
:10D81000E8D3002070BD0000A9D401000805005025
:10D82000CDD60100E5D60100942500200007005068
:10D83000FFFFFCFFB8250020D8250020F825002098
:10D84000110000001200000013000000140000008E
:10D850001100030029D401001200030029D40100A3
:10D860001300030029D401001400030029D401008F
:10D87000D0B500244B4F09E0002048400121414031
:10D880007368180001D010009847641C3878E4B21F
:10D8900084421BD27868E100461831780120884024
:10D8A00039690842F1D081433961307800F0B6F926
:10D8B00001003278F868012393400340080090404B
:10D8C0008342E2D170780128D6D1D6E7D0BDF8B531
:10D8D00007000125BD40334C20001430FFF760FDE8
:10D8E00000281AD12069EE43284214D1380000F0F4
:10D8F00095F9E168002801D0294301E00E4031008C
:10D90000E1602069054325610022A16814342000EC
:10D91000FFF722FDF1BD06402661F1BDF8B5060016
:10D920000C001500052D01D20720F2BD00F0CFF844
:10D93000002803D100F0A9F8002822D11948466038
:10D94000047085600021C1600161174D19A7200096
:10D95000441E00280FD0E4B2E0003018396800916E
:10D9600081786A4651702A006946007800F0BEF856
:10D970000028ECD0F2BD0D4A002100BF0CA0FFF73B
:10D98000A7FCF2BD38B50024064D06E00121686809
:10D99000E200805C00F0FCF8641C28788442F5D337
:10D9A000002032BD78270020CFD8010071D80100B7
:10D9B0008C2700200300000048494058012800D06F
:10D9C0000020704752000A4399001143009A120246
:10D9D0000A43019909041143414A800011507047DC
:10D9E0003F4A8000101802683E4B134003600268F3
:10D9F00009041143016070473B4908182021405633
:10DA000004288041C00F704737490818202140562C
:10DA1000042801DB012070470020704732490818B4
:10DA200020214056C043C00F704771B581B000201F
:10DA3000C0430425002A02D10424082500E0002464
:10DA4000514B00E0641CAC4212D2A6009E19009615
:10DA500036688642F6D1019D5D1920352C700098FC
:10DA60000160002A03D1019819193C310870200087
:10DA700040B276BD44490022D2438300CA500428F4
:10DA800002DB08183C300270704738B5164C442051
:10DA9000205C002801D0082032BDFF222021200078
:10DAA0002030FEF749F800252800FFF7E3FF6D1C42
:10DAB000082DF9DB0321062000F068F9802000061C
:10DAC00032490860012044342070002032BD5148A2
:10DAD0000078002800D0012070470000006000405E
:10DAE00000070050FFFFFCFF78260020F0B583B050
:10DAF00007000E0015000024FFF790FF002801D05A
:10DB000008243FE0F27829003800FFF78EFF050077
:10DB10000020C043854234D0B078002807D0434865
:10DB2000B9004018016802229143016007E00190AA
:10DB300000907378002200213800FFF743FF30780F
:10DB4000F178002913D03449AA0089180A68384BA3
:10DB500013400B600A683B02F8256D011D4000046C
:10DB6000C0239B0203402B4313430B600AE0804910
:10DB70004A193C3212788001104349193C3108702F
:10DB800000E004242000FEBD78260020046300404D
:10DB9000F2B50700764CE5190126FFF735FF00289E
:10DBA00015D02020285620183C2140560006800F12
:10DBB0000221032804D16F480068F840064000E0C5
:10DBC000012800D003213800FFF70AFFF1BD38001B
:10DBD000FFF712FF00281BD0202028560E49820094
:10DBE00089180A6832430A60002182003302D21881
:10DBF00012B20D4BD15069460978002908D0202176
:10DC0000695689006158002902D086405A4806604A
:10DC1000F1BD0000BC260020106500405549096890
:10DC2000C140C807C00F70470060004000070050A7
:10DC3000FFE0FCFFF0B585B000260296802464006A
:10DC40000125042720B2FFF7B7FE002808D04A4874
:10DC50000068284004D0002024B2494960502E4377
:10DC60006D00241D7F1EEDD180273F06BE204000A1
:10DC7000FFF7A2FE002806D00020424908603E437C
:10DC80003C4800680290300713D00125002435423B
:10DC90000BD0A20039488118086809688903890FE8
:10DCA000C004C00E324B9A5890476D00641C042C7F
:10DCB000EDD337405AD000200390C04301E00290DA
:10DCC0000398049000260024294800194021415659
:10DCD000C8B20200C0239A4300920022D24391426C
:10DCE0003AD00499009AD140C90735D50006800F73
:10DCF00001901F48009A81182022895689004758B0
:10DD0000380002D10198032826D1012500988540CA
:10DD10000198032802D10398284303901A480099D8
:10DD2000890040588003800F0299294002D00228C0
:10DD300012D101E003280FD10199032906D102284D
:10DD400000D002210098FFF74BFE761C380003D06C
:10DD50000199C9B20098B847641C042CB4D33606A4
:10DD600004D00448006802998842A8D105B0F0BDEB
:10DD70007826002010050050046300401065004024
:10DD8000006000407C6100400007005010B5820731
:10DD9000D30EFF249C40E2438907090E99400300FB
:10DDA00005D50B4C03071B0F083B9B0801E0094CF2
:10DDB00083089B00E3181C6822401143196001216D
:10DDC000C006C00E8140044801600448016010BDD7
:10DDD0001CED00E000E400E080E200E000E100E093
:10DDE0000179002902D1007B002800D00120704772
:10DDF00080B507214948FDF7BFFE01BD0021425C07
:10DE0000002A01D001207047491C0629F7D30020C1
:10DE10007047F2B504001100002C01D0002901D197
:10DE20000E20F2BD0026B14DAE762B6206986862D8
:10DE3000AF482422FEF7EAFBFFF7DAFF280028307C
:10DE4000286028004830A860AA4D38212800FDF736
:10DE500093FE20782870A078A870E078E870607849
:10DE600068702000103003C82A00103203C220005E
:10DE7000083003C82A00083203C22000183003C843
:10DE80002A00183203C29C4801004031626A002A0D
:10DE90000FD069628860626A13880B8092888A80DA
:10DEA000002304E0676ABF68FF5CC7545B1C9342B1
:10DEB000F8D3A26A002A19D0020020324A61020077
:10DEC0004C32AA62A26A93880B8212888A8106E089
:10DED000A26A9268925D831920331A70761C0A8AAE
:10DEE0009642F5D32C22A25C2C23EA54226A002A03
:10DEF00007D0020058322A62226A53884B83128864
:10DF00000A836168002903D05C30686060686860DB
:10DF100000992800FEF71CFFF2BD0000A822002097
:10DF2000F0B587B0714CA076002000906846FEF7EF
:10DF300030FB0125082802D0002808D104E06846FB
:10DF400000F056F9002804D10098002801D0257669
:10DF5000C8E0FFF74DFFA07E654F7978002901D01A
:10DF6000012806D0B97800290CD0012801D0022858
:10DF700008D1216A080003D065770820884701E0AE
:10DF800000206077A67E012E0BD17878002805D07E
:10DF900020001130FFF732FF002802D10220A076C6
:10DFA00001E0022E0AD1B878002805D020001130F7
:10DFB000FFF724FF002801D10320A076387B00283A
:10DFC00004D1A07E032801D10420A076387E002849
:10DFD00005D1A07E042802D10020A0766076216AB7
:10DFE00008000ED0A07E032801D0042809D138787B
:10DFF000E27E01235340184203D02577072088474B
:10E0000001E000202077182101A8FDF7B5FD01AE41
:10E0100000203070029030720490A07E012806D05B
:10E0200054D3032815D00AD3042830D04EE0200062
:10E0300010300290357000203061657649E0200094
:10E04000103002903570B868708278683082022093
:10E050002CE078697082386930822000FFF7C0FEBA
:10E0600039780140E07E01224240114201D1032073
:10E070001CE002203072049404201E49C870002164
:10E080001C48FEF765FE00282DD105201DE0F8692B
:10E090003082386A70822000FFF7A2FE3978014092
:10E0A000E07E01224240114202D10420607610E05D
:10E0B00002203072049404200E49C87000210D48DB
:10E0C000FEF746FE00280ED106206076A07E0028CE
:10E0D00003D001A873DF002805D1216A080001D010
:10E0E000607E8847002007B0F0BD00009822002025
:10E0F000AC270020402700201826002010B5002162
:10E10000384C0288102A04D0112A08D01B2A0DD0BE
:10E1100010BD817D01292BD18088E08310BDE1767F
:10E120008088E18B884223D1012012E0007A002808
:10E130001ED1A07E012806D01AD3032807D004D30D
:10E1400004280FD010BD022003E0032001E0607618
:10E150000420FFF7E5FE00280AD0616A0A0007D014
:10E16000884710BD6176216A080001D000208847E9
:10E1700010BD801E012800D9704710B5194C207EB3
:10E1800000280AD000202076A07EFFF7C9FE0028D4
:10E1900003D0616A0A0000D0884710BD10B5114C49
:10E1A00011480078E17E01224A40104218D0A07E3A
:10E1B000002802D074DF002813D10120E0760B483C
:10E1C0000621C1700021FEF7C3FD002809D1A07E01
:10E1D000FFF7A6FE002803D0616A0A0000D0884736
:10E1E000002010BD98220020AC27002040270020EE
:10E1F000002801D1032070470249896D0160002089
:10E2000070470000002300200078002800D07047ED
:10E2100080B53B21AC48008876DF12E080B5FEF780
:10E220000FFA01BD80B50020FFF766FA002801D083
:10E23000FEF706FA00F088F9002801D0FEF700FA90
:10E240003CDF002801D0FEF7FBF901BD80B50028B6
:10E2500009D0032809D10220FFF74EFA002804D084
:10E26000FEF7EEF901BDFFF7DDFF01BD38B5040093
:10E27000FDF770FA200000F065FA200000F06EF95A
:10E28000914D2088102803D011280AD18F4807E02B
:10E290000720FFF731FA002801D0FEF7D1F9A08856
:10E2A00028802000FFF72AFF31BD10B50400FDF7DC
:10E2B000F5FE2000FFF75DFF10BD80B5042806D0F5
:10E2C000072809D00A280FD1FFF7ACFF01BD1321A1
:10E2D0007D48008876DF01E0FFF760FF082803D063
:10E2E000002801D0FEF7ACF901BD80B5002A02D0AC
:10E2F0001000FEF7A5F9002002BD0000F0B599B0AE
:10E30000734C00232200083205210020FEF79EFFF7
:10E31000002801D0FEF794F96E4A6F490320FFF7F9
:10E32000FBF9002801D0FEF78BF96946002000F0C8
:10E3300050F9002801D0FEF783F90127002668462E
:10E340000078022801D1012500E000256EA00068B8
:10E35000009000234822E82040002118684600F081
:10E3600074FA002801D0FEF76BF901AA0121002000
:10E3700000F0B5FA002801D0FEF762F9574800F026
:10E38000C5FA002801D0FEF75BF901A800F0C5FA34
:10E39000002801D0FEF754F9514800F082FA002815
:10E3A00001D0FEF74DF94F4800F083FA002801D064
:10E3B000FEF746F968460570FDF732FF002801D0E8
:10E3C000FEF73EF96846FDF7ECF8002801D0FEF7AD
:10E3D00037F901AD0521681DFDF7CCFB31206871CF
:10E3E0000720A8711020E8713F4801902F7101A902
:10E3F0002000FDF72FF9002801D0FEF721F91120A8
:10E40000694608700F2200BF3BA168467CDF0028E8
:10E4100001D0FEF715F901A80021002206C001A8CD
:10E4200050210180A02141808680F031C1807ADFB7
:10E43000002801D0FEF704F938210AA8FDF79CFB5B
:10E440000AA80221017087700621C1700782241D6D
:10E450000F9401A82421FDF78FFB01A807739620D4
:10E4600040000590B42006900096204B01AA0021A0
:10E470000AA8FFF7CEFC002801D0FEF7E1F81C2126
:10E480006846FDF779FB0096A02080020190F020FD
:10E4900000030290684603210173C6810674144884
:10E4A000059014480690684600F0FAF8002801D05C
:10E4B000FEF7C6F80320FFF733FD002801D0FEF772
:10E4C000BFF848DFF9E7000068230020FFFF0000E5
:10E4D00080200020BBE20100CD0C0000E81F0020DE
:10E4E0006DE20100ABE20100EBE201004DE2010050
:10E4F00009E201001DE201004E6F726469635F541E
:10E50000656D706C617465000100000780B50122C3
:10E5100002210020FFF746F9002801D0072812D178
:10E52000072202210120FFF73DF9002801D007282A
:10E5300009D10A2200210020FFF734F9002801D078
:10E54000072800D1002002BD80B50320FFF748F95D
:10E55000002801D0062800D1002002BD10B5344C9F
:10E5600061680088102802D0112826D010BD00292B
:10E570001FD101220020FFF715F9002801D007283C
:10E5800011D1072202210120FFF70CF9002801D048
:10E59000072808D1042202210020FFF703F90028F0
:10E5A00007D0072805D0002803D021680A0000D032
:10E5B00088476068401C606010BD491E616007D1DB
:10E5C000FFF7A4FF002803D021680A0000D0884785
:10E5D00010BDF8B50F0000260025154C2060002F57
:10E5E0001DD000A9491C0020FEF70EFF002814D101
:10E5F00069460120FEF708FF00280ED16846007822
:10E60000002801D0022004E068464078002802D0AB
:10E610000B20387003E03E7001E0050005D1606812
:10E62000002802D1FFF772FF05002800F2BD0000AC
:10E6300044280020408861490A88904204D34988D0
:10E64000814201D3012070470020704738B55C4CEF
:10E65000E08B5C49884222D0217F491C2177227BB4
:10E66000C9B28A4208D3554975DF002817D0A1697D
:10E670000A0014D0884731BD00252577217C002968
:10E6800007D03B2176DF002803D0A1690A0000D023
:10E6900088476169080002D068460570884731BD27
:10E6A00070B50600464C200031001C22FDF7AEFF7D
:10E6B000002565773168414E002911D030000822CD
:10E6C000FDF790FF30007ADF002808D13D48E08355
:10E6D00025773D4A002100BF3DA0FEF7F9FD70BD42
:10E6E00030007BDF0028F1D070BD38B50025344CF8
:10E6F0003648FFF79FFF00281AD1607F002805D019
:10E70000616908001CD06A46157017E0207F002858
:10E7100001D1616800E0A168002220002030FEF7EE
:10E720001BFE00280CD0A1690A0009D0884707E029
:10E730006169080004D001206A4610706846884765
:10E74000657731BD38B5010000251D4C1F480A888A
:10E75000102A06D0112A0FD0122A27D0502A0FD003
:10E7600031BD8A88E28318310822FDF73BFF257707
:10E77000E089002820D11DE01248E08325770AE0D7
:10E78000891D0888E289904216D14889022813D150
:10E79000087BC0070ED420002030FEF701FE0028C1
:10E7A0000AD0A1690A0007D0884731BD0831082284
:10E7B000FDF718FFFFF799FF31BD00003428002056
:10E7C000C0260020FFFF00004DE601003C2800208D
:10E7D000E026002080B5FDF7B3FF01BDDCB5534C4A
:10E7E0002078002830D00026A069002801D1012718
:10E7F00000E000276069002800D10126002F0DD11C
:10E80000684652DF052801D1012707E0002802D021
:10E81000FDF716FF02E00098A1698847002E11D18C
:10E8200060886946888001A9206961DF052801D1D7
:10E83000012607E0002802D0FDF702FF02E0206970
:10E84000616988473742D9D0D3BD38B51D0000294A
:10E8500002D00323194201D0072032BD334C21617D
:10E860006280E560324910DF002813D1012020705A
:10E8700030480068800D0340042B0CD2002B0AD0D6
:10E88000022B08D08020C003A168002905D12A49A5
:10E890000860002032BD294832BD616808436060CD
:10E8A000F7E7010001D10E207047204948610020A0
:10E8B0007047010001D10E2070471C49886100207B
:10E8C000704780B51948C068010005D0804700280E
:10E8D00004D0FDF7B5FE01BDFFF780FF01BD70B5A7
:10E8E00004000D00160014213000FDF745F9012049
:10E8F000308000213161317BFE220A403273357253
:10E900007472002C00D0B072002070BD81B00C4930
:10E9100000910099002001B0704782B00849019130
:10E9200001990091694660DF02B070470C28002011
:10E93000D5E7010014E400E000E100E0022000005F
:10E94000802000204058002804E0C1229200805816
:10E950000140080000D00120C0B2704700201049DB
:10E96000086010488168828A895C828A521C82828F
:10E970001A480160704710B51A49194A00235D48CA
:10E98000C47D002C136001D1086810BD427E096867
:10E99000C3689954417E491C417610BD00000000B7
:10E9A0001C210040F027002000B585B06A460123F5
:10E9B0001370107201914F4A0AE0000000B585B053
:10E9C00000216A46117010724A4A90680190917550
:10E9D000116868465268904705B000BD1C2500408C
:10E9E0000821004018250040F0B585B0414C812633
:10E9F000B60000253E4F790D3800FFF7A6FF00282E
:10EA000021D0922149003800FFF79CFF00281AD03E
:10EA10003B48856039480660A07E002801D101206E
:10EA2000786068460221017033490A680A600392DF
:10EA3000E17D0172E0680190E57525762168684600
:10EA40006268904728E004213800FFF77EFF002825
:10EA500022D0842149003800FFF774FF00281BD022
:10EA6000FFF789FFE07D617E884215D1E168227E53
:10EA7000002A06D0607EE2752269E260257665761E
:10EA800008E0A07E002801D1012078601B480660C4
:10EA9000E575607EFFF788FF8E2149003800FFF79B
:10EAA00051FF00280CD0A07DA18A814202DAFFF735
:10EAB00055FF05E012490D60002801D0FFF77EFFE9
:10EAC000A22149003800FFF73DFF00280ED00C4876
:10EAD0008562A07E002801D001203860E07D0028FA
:10EAE00004D0E575E168607EFFF75EFF05B0F0BD1C
:10EAF00000200040F0270020802400400823004030
:10EB00001C21004080B5FFF76FFF01BD816807E061
:10EB10000268116851185368CB18C360083202604C
:10EB2000C2689142F4D04A1C826008787047F0B500
:10EB300087B001000831029102685208D20089189A
:10EB4000039100250495059501684908C9004418FA
:10EB5000083440686946C307DB0F4B704008C000AB
:10EB600020180190002735E002A8FFF7CFFF46B23A
:10EB70000AE0029801684018049002994968401818
:10EB80000590029808300290049805998842F0D0C8
:10EB900001786A461170401C0490BD4210D1019862
:10EBA000844201D100F01EF82568684640780028AC
:10EBB00001D048462D1860682F180834BD42EED0A9
:10EBC0006846007828706D1C002E08D5761CE4D1AC
:10EBD000BD42C9D101988442C6D107B0F0BD761EAE
:10EBE000D2D5F5E780B5012000F002F801BDFEE7BF
:10EBF0002021090326311820ABBEF9E710B5F0201B
:10EC00000F2228490B78012B1BD14B68134018D1D8
:10EC10008B68034202D1CC6804400CD0F0241C4025
:10EC2000102C02D1CC68044005D00340302B08D111
:10EC3000CB68034005D11C4B1C4C2360E30B1C4CE0
:10EC400023600B78012B0CD14B68134009D18B68E2
:10EC50000340402B05D1CB68034002D10123154C62
:10EC600023600B78012B1BD14B681A4018D18A689E
:10EC7000F0231340A02B02D1CB68034005D0024003
:10EC8000D02A0DD1C96808400AD10B480168012972
:10EC900004D00A49016001680129FCD1C021416109
:10ECA00010BD0000E00F00F0DFFF07C004050040CA
:10ECB000186C00400806004000EC06407593000008
:10ECC00070B40121002313E00468001D0C4202D03F
:10ECD0004D466D1E64192360241D121F042AFAD2AA
:10ECE0002500960701D52380AD1C0A4000D02B706B
:10ECF0000268001D002AE7D170BC70470321064856
:10ED000002680A430260054802680A430260044838
:10ED10008047044800470000240500405405004097
:10ED2000FDEB0100ABED010010B507497944183146
:10ED3000064C7C44163404E0081D0A68891888478C
:10ED40000100A142F8D110BD080000003000000011
:10ED500071FFFFFFE00400006C23002000000000B2
:10ED6000CFFDFFFF0200000002000000780000005D
:10ED70001D00000080200020EA0200000120C046A3
:10ED8000002801D0FFF7D0FF0020C046C046FFF7A3
:10ED9000B5FA00F000F880B500F002F801BDFEE71A
:10EDA00007463846FFF724FFFBE7C046C046C0468B
:10EDB000C046FFF7E3FFFEE7FEE7FEE7FEE7FEE7FC
:10EDC000FEE7FEE7FEE7FEE7FEE7FEE7FEE7FEE71B
:10EDD000FEE7FEE7FEE7FEE7FEE7FEE7FEE7FEE70B
:10EDE000FEE7FEE7FC00020A1801810081008100B5
:10EDF0008100CD0001FFFF8100D2000424F400FF58
:01EE0000FF12
:040000050001EDAB5E
:00000001FF
